{
    "contractName": "CoinCoin",
    "abi": [
        {
            "inputs": [
                {
                    "internalType": "address",
                    "name": "owner_",
                    "type": "address"
                },
                {
                    "internalType": "uint256",
                    "name": "totalSupply_",
                    "type": "uint256"
                }
            ],
            "stateMutability": "nonpayable",
            "type": "constructor"
        },
        {
            "anonymous": false,
            "inputs": [
                {
                    "indexed": true,
                    "internalType": "address",
                    "name": "owner",
                    "type": "address"
                },
                {
                    "indexed": true,
                    "internalType": "address",
                    "name": "spender",
                    "type": "address"
                },
                {
                    "indexed": false,
                    "internalType": "uint256",
                    "name": "value",
                    "type": "uint256"
                }
            ],
            "name": "Approval",
            "type": "event"
        },
        {
            "anonymous": false,
            "inputs": [
                {
                    "indexed": true,
                    "internalType": "address",
                    "name": "sender",
                    "type": "address"
                },
                {
                    "indexed": true,
                    "internalType": "address",
                    "name": "recipient",
                    "type": "address"
                },
                {
                    "indexed": false,
                    "internalType": "uint256",
                    "name": "amount",
                    "type": "uint256"
                }
            ],
            "name": "Transfer",
            "type": "event"
        },
        {
            "inputs": [
                {
                    "internalType": "address",
                    "name": "owner_",
                    "type": "address"
                },
                {
                    "internalType": "address",
                    "name": "spender",
                    "type": "address"
                }
            ],
            "name": "allowance",
            "outputs": [
                {
                    "internalType": "uint256",
                    "name": "",
                    "type": "uint256"
                }
            ],
            "stateMutability": "view",
            "type": "function"
        },
        {
            "inputs": [
                {
                    "internalType": "address",
                    "name": "spender",
                    "type": "address"
                },
                {
                    "internalType": "uint256",
                    "name": "amount",
                    "type": "uint256"
                }
            ],
            "name": "approve",
            "outputs": [],
            "stateMutability": "nonpayable",
            "type": "function"
        },
        {
            "inputs": [
                {
                    "internalType": "address",
                    "name": "account",
                    "type": "address"
                }
            ],
            "name": "balanceOf",
            "outputs": [
                {
                    "internalType": "uint256",
                    "name": "",
                    "type": "uint256"
                }
            ],
            "stateMutability": "view",
            "type": "function"
        },
        {
            "inputs": [],
            "name": "name",
            "outputs": [
                {
                    "internalType": "string",
                    "name": "",
                    "type": "string"
                }
            ],
            "stateMutability": "view",
            "type": "function"
        },
        {
            "inputs": [],
            "name": "symbol",
            "outputs": [
                {
                    "internalType": "string",
                    "name": "",
                    "type": "string"
                }
            ],
            "stateMutability": "view",
            "type": "function"
        },
        {
            "inputs": [],
            "name": "totalSupply",
            "outputs": [
                {
                    "internalType": "uint256",
                    "name": "",
                    "type": "uint256"
                }
            ],
            "stateMutability": "view",
            "type": "function"
        },
        {
            "inputs": [
                {
                    "internalType": "address",
                    "name": "recipient",
                    "type": "address"
                },
                {
                    "internalType": "uint256",
                    "name": "amount",
                    "type": "uint256"
                }
            ],
            "name": "transfer",
            "outputs": [],
            "stateMutability": "nonpayable",
            "type": "function"
        }
    ],
    "bytecode": "608060405234801561001057600080fd5b506040516107fc3803806107fc83398101604081905261002f9161017d565b6040805180820190915260088082526721b7b4b721b7b4b760c11b602090920191825261005e916002916100e4565b506040805180820190915260048082526321a7a4a760e11b602090920191825261008a916003916100e4565b506001600160a01b038216600081815260208190526040808220849055517fddf252ad1be2c89b69c2b068fc378daa952ba7f163c4a11628f55a4df523b3ef906100d59085906101b5565b60405180910390a350506101f9565b8280546100f0906101be565b90600052602060002090601f0160209004810192826101125760008555610158565b82601f1061012b57805160ff1916838001178555610158565b82800160010185558215610158579182015b8281111561015857825182559160200191906001019061013d565b50610164929150610168565b5090565b5b808211156101645760008155600101610169565b6000806040838503121561018f578182fd5b82516001600160a01b03811681146101a5578283fd5b6020939093015192949293505050565b90815260200190565b6002810460018216806101d257607f821691505b602082108114156101f357634e487b7160e01b600052602260045260246000fd5b50919050565b6105f4806102086000396000f3fe608060405234801561001057600080fd5b506004361061007d5760003560e01c806370a082311161005b57806370a08231146100ca57806395d89b41146100dd578063a9059cbb146100e5578063dd62ed3e146100f85761007d565b806306fdde0314610082578063095ea7b3146100a057806318160ddd146100b5575b600080fd5b61008a61010b565b6040516100979190610407565b60405180910390f35b6100b36100ae3660046103de565b61019d565b005b6100bd610232565b6040516100979190610535565b6100bd6100d836600461038b565b610238565b61008a610257565b6100b36100f33660046103de565b610266565b6100bd6101063660046103ac565b610349565b60606002805461011a9061056d565b80601f01602080910402602001604051908101604052809291908181526020018280546101469061056d565b80156101935780601f1061016857610100808354040283529160200191610193565b820191906000526020600020905b81548152906001019060200180831161017657829003601f168201915b5050505050905090565b6001600160a01b0382166101cc5760405162461bcd60e51b81526004016101c3906104f0565b60405180910390fd5b3360008181526001602090815260408083206001600160a01b03871680855292529182902084905590519091907f8c5be1e5ebec7d5bd14f71427d1e84f3dd0314c0f7b2291e5b200ac8c7c3b92590610226908590610535565b60405180910390a35050565b60045490565b6001600160a01b0381166000908152602081905260409020545b919050565b60606003805461011a9061056d565b336000908152602081905260409020548111156102955760405162461bcd60e51b81526004016101c3906104aa565b6001600160a01b0382166102bb5760405162461bcd60e51b81526004016101c39061045a565b33600090815260208190526040812080548392906102da908490610556565b90915550506001600160a01b0382166000908152602081905260408120805483929061030790849061053e565b90915550506040516001600160a01b0383169033907fddf252ad1be2c89b69c2b068fc378daa952ba7f163c4a11628f55a4df523b3ef90610226908590610535565b6001600160a01b03918216600090815260016020908152604080832093909416825291909152205490565b80356001600160a01b038116811461025257600080fd5b60006020828403121561039c578081fd5b6103a582610374565b9392505050565b600080604083850312156103be578081fd5b6103c783610374565b91506103d560208401610374565b90509250929050565b600080604083850312156103f0578182fd5b6103f983610374565b946020939093013593505050565b6000602080835283518082850152825b8181101561043357858101830151858201604001528201610417565b818111156104445783604083870101525b50601f01601f1916929092016040019392505050565b60208082526030908201527f436f696e436f696e3a20756e61626c6520746f207472616e7366657220746f2060408201526f746865207a65726f206164647265737360801b606082015260800190565b60208082526026908201527f436f696e436f696e3a204e6f7420656e6f75676820457468657220746f20747260408201526530b739b332b960d11b606082015260800190565b60208082526025908201527f436f696e436f696e3a20617070726f766520746f20746865207a65726f206164604082015264647265737360d81b606082015260800190565b90815260200190565b60008219821115610551576105516105a8565b500190565b600082821015610568576105686105a8565b500390565b60028104600182168061058157607f821691505b602082108114156105a257634e487b7160e01b600052602260045260246000fd5b50919050565b634e487b7160e01b600052601160045260246000fdfea26469706673582212208a71543c2cf90eaf44054d73c16647c988a1b054cf629c53430254ad98d70d2b64736f6c63430008000033",
    "sourcePath": "/home/savel/Alyra/CoinCoin-Token/contracts/CoinCoin.sol",
    "compiler": {
        "name": "solc",
        "version": "0.8.0+commit.c7dfd78e"
    },
    "functionHashes": {
        "allowance(address,address)": "dd62ed3e",
        "approve(address,uint256)": "095ea7b3",
        "balanceOf(address)": "70a08231",
        "name()": "06fdde03",
        "symbol()": "95d89b41",
        "totalSupply()": "18160ddd",
        "transfer(address,uint256)": "a9059cbb"
    },
    "gasEstimates": {
        "creation": {
            "codeDepositCost": "304800",
            "executionCost": "infinite",
            "totalCost": "infinite"
        },
        "external": {
            "allowance(address,address)": "infinite",
            "approve(address,uint256)": "22410",
            "balanceOf(address)": "infinite",
            "name()": "infinite",
            "symbol()": "infinite",
            "totalSupply()": "1073",
            "transfer(address,uint256)": "45129"
        }
    }
}